0101010010ATIVIDADE EDUCATIVA / ORIENTAÇÃO EM GRUPO NA ATENÇÃO BÁSICA                                                                                                                                                                                               1I9999999900000048133100000000000000000000000000000001      201101
0101010028ATIVIDADE EDUCATIVA / ORIENTAÇÃO EM GRUPO NA ATENÇÃO ESPECIALIZADA                                                                                                                                                                                        2I9999999900000084133100000000000000000270000000000006      201101
0101010036PRÁTICA CORPORAL / ATIVIDADE FÍSICA EM GRUPO                                                                                                                                                                                                              1I9999999900000072133100000000000000000000000000000001      201101
0101010044PRÁTICAS CORPORAIS EM MEDICINA TRADICIONAL CHINESA                                                                                                                                                                                                        1I9999999900000072133100000000000000000000000000000001      201101
0101020015AÇÃO COLETIVA DE APLICAÇÃO TÓPICA DE FLÚOR GEL                                                                                                                                                                                                            1I9999999900000048133100000000000000000000000000000001      201101
0101020023AÇÃO COLETIVA DE BOCHECHO FLUORADO                                                                                                                                                                                                                        1I9999999900000048133100000000000000000000000000000001      201101
0101020031AÇÃO COLETIVA DE ESCOVAÇÃO DENTAL SUPERVISIONADA                                                                                                                                                                                                          1I9999999900000036133100000000000000000000000000000001      201101
0101020040AÇÃO COLETIVA DE EXAME BUCAL COM FINALIDADE EPIDEMIOLÓGICA                                                                                                                                                                                                1I9999999900000000133100000000000000000000000000000001      201101
0101020058APLICAÇÃO DE CARIOSTATICO (POR DENTE)                                                                                                                                                                                                                     1I9999999900000000133100000000000000000000000000000001      201101
0101020066APLICAÇÃO DE SELANTE (POR DENTE)                                                                                                                                                                                                                          1I9999999900000000133100000000000000000000000000000001      201101
